:100000000C9434000C9449000C9449000C94490061
:100010000C9449000C9449000C9449000C9449003C
:100020000C9449000C9449000C9449000C9449002C
:100030000C9449000C9449000C9449000C9449001C
:100040000C9449000C9449000C9449000C9449000C
:100050000C9449000C9449000C9449000C944900FC
:100060000C9449000C94490011241FBECFEFD8E036
:10007000DEBFCDBF11E0A0E0B1E0E0E9F4E002C0F6
:1000800005900D92A432B107D9F70E944B000C9451
:1000900046020C940000AF92BF92CF92DF92EF9293
:1000A000FF920F931F93DF93CF9300D00F92CDB7A2
:1000B000DEB780E090E060E00E94DC00389A409873
:1000C0008EEF898386E48A8381E58B838E010F5FBF
:1000D0001F4F22E0E22EF12CEC0EFD1E93E0A92E24
:1000E000B12CAC0EBD1E88EBC82ED12C88E2B80115
:1000F00041E020E00E94040188E2B70141E020E0F5
:100100000E94040188E2B80141E020E00E9404015D
:1001100088E2B50141E020E00E94040188E2B801D4
:1001200041E020E00E94040188E2B70141E020E0C4
:100130000E94040180E063E00E94D70180E091E02A
:100140000E94230281E064E00E94D7018FE091E0E9
:100150000E94230282E066E00E94D7018BE191E0D9
:100160000E94230280E197E2F6013197F1F70197AF
:10017000D9F7BCCF882369F084EC8093BC008091D0
:10018000BC0087FFFCCF8091B900887F803569F47F
:1001900010C084E88093BC008091BC0087FFFCCF36
:1001A0008091B900887F883521F08091B900887FDF
:1001B00008958091BB0008959C0187B1806387B941
:1001C000662319F088B1806302C088B18F7C88B93A
:1001D00087B18F7C87B92130310561F0213031053D
:1001E00038F02230310541F02330310561F408C088
:1001F00088E903C088E401C088E18093B8000895CD
:100200008CE08093B8000895982F84EA8093BC0016
:100210008091BC0087FFFCCF8091B900887F883037
:1002200071F08091B900887F803149F08091B900E8
:10023000E82FF0E0E87FF070309709F046C0990FA2
:100240009093BB0084E88093BC008091BC0087FF42
:10025000FCCF8091B900887F883149F18091B90045
:10026000887F803421F18091B900E82FF0E0E87FA9
:10027000F070309751F51BC0FB01EA0FFB1F808126
:100280008093BB009093BC008091BC0087FFFCCFA3
:100290008091B900887F883241F08091B900E82FC1
:1002A000F0E0E87FF070309781F4119604C0A0E090
:1002B000B0E050E094E8A417B507F4F2222319F453
:1002C00084E98093BC00E0E0F0E0CF010895CF9294
:1002D000DF92EF92FF920F931F93CF93DF93982FAC
:1002E0008B0184EA8093BC008091BC0087FFFCCF27
:1002F0008091B900887F883079F08091B900887F3B
:10030000803151F08091B900282F30E0287F307083
:100310002115310509F041C0990F91609093BB0000
:1003200084E88093BC008091BC0087FFFCCF809163
:10033000B900887F8831C1F08091B900887F80340E
:1003400099F08091B900282F30E0287F3070211576
:10035000310519F509C081E00E94BA00F801EC0FDF
:10036000FD1F8083219608C0C0E0D0E0E42EFF246A
:1003700067010894C108D108CC15DD0564F380E05D
:100380000E94BA000E0D1F1D01501040F80180831D
:1003900084E98093BC0020E030E0C901DF91CF9177
:1003A0001F910F91FF90EF90DF90CF900895DF9312
:1003B000CF9300D00F92CDB7DEB7813049F08130B6
:1003C00028F0823039F0833041F406C080E005C067
:1003D00088E203C084E101C08CE3860F8B8385E44F
:1003E0008A838EEF898388E2BE016F5F7F4F41E091
:1003F00020E00E94040188E2BE016E5F7F4F41E071
:1004000020E00E94040188E2BE016D5F7F4F41E061
:1004100020E00E9404010F900F900F90CF91DF9188
:100420000895DF93CF930F92CDB7DEB7898388E22B
:10043000BE016F5F7F4F41E020E00E9404010F90FA
:10044000CF91DF910895EF92FF920F931F93DF9367
:10045000CF930F92CDB7DEB78C017E010894E11CDB
:10046000F11C07C0898388E2B70141E020E00E94C7
:100470000401F80181918F018823A1F70F90CF919A
:10048000DF911F910F91FF90EF900895F894FFCFA7
:100490004545343539204C4344205465737400532A
:1004A0007072696E672032303234004B52204754EC
:0404B000204742009F
:00000001FF
