:100000000C9434000C9449000C9449000C94490061
:100010000C9449000C9449000C9449000C9449003C
:100020000C9449000C9449000C9449000C9449002C
:100030000C9449000C9449000C9449000C9449001C
:100040000C9449000C9449000C9449000C9449000C
:100050000C9449000C9449000C9449000C944900FC
:100060000C9449000C94490011241FBECFEFD8E036
:10007000DEBFCDBF11E0A0E0B1E0E4EEFAE002C0E7
:1000800005900D92AE31B107D9F70E944B000C9448
:1000900070050C9400002F923F924F925F926F92E6
:1000A0007F928F929F92AF92BF92CF92DF92EF9208
:1000B000FF920F931F93DF93CF93CDB7DEB76E9769
:1000C0000FB6F894DEBF0FBECDBF80E090E060E0D9
:1000D0000E94060166E0262E58E1352E42E0442EAD
:1000E000512C4C0E5D1E3E010894611C711C34E0C5
:1000F000832E912C8C0E9D1E8E01055F1F4F21E1DA
:10010000A22EB12C90E0C92E91E0D92E88EBE82EDA
:10011000F12C0E94010219822A823B8288E6B201F8
:1001200042E020E00E942E01198288E6B30141E0FE
:1001300020E00E942E0188E6B40147E00E94910170
:100140008DB79EB70C970FB6F8949EBF0FBE8DBFAC
:10015000EDB7FEB73196ADB7BEB712961C930E93AE
:100160001197B382A282D582C48288858F708683DC
:10017000178289858F70808711868A8590E08053E9
:10018000984F938782870E948B028DB79EB70C96FB
:100190000FB6F8949EBF0FBE8DBF80E063E00E9453
:1001A0001F028FE091E00E94680281E060E00E94FF
:1001B0001F02C8010E9468028FEF9FEFF70131977D
:1001C000F1F70197D9F7A5CF882369F084EC8093E4
:1001D000BC008091BC0087FFFCCF8091B900887F74
:1001E000803569F410C084E88093BC008091BC0025
:1001F00087FFFCCF8091B900887F883521F08091FE
:10020000B900887F08958091BB0008959C0187B153
:10021000806387B9662319F088B1806302C088B112
:100220008F7C88B987B18F7C87B92130310561F027
:100230002130310538F02230310541F023303105CD
:1002400061F408C088E903C088E401C088E18093B4
:10025000B80008958CE08093B8000895982F84EA40
:100260008093BC008091BC0087FFFCCF8091B900D7
:10027000887F883071F08091B900887F803149F0A3
:100280008091B900E82FF0E0E87FF070309709F036
:1002900046C0990F9093BB0084E88093BC00809186
:1002A000BC0087FFFCCF8091B900887F883149F17D
:1002B0008091B900887F803421F18091B900E82FC6
:1002C000F0E0E87FF070309751F51BC0FB01EA0FBA
:1002D000FB1F80818093BB009093BC008091BC0089
:1002E00087FFFCCF8091B900887F883241F08091F0
:1002F000B900E82FF0E0E87FF070309781F41196B4
:1003000004C0A0E0B0E050E094E8A417B507F4F210
:10031000222319F484E98093BC00E0E0F0E0CF01EF
:100320000895CF92DF92EF92FF920F931F93CF9396
:10033000DF93982F8B0184EA8093BC008091BC00EE
:1003400087FFFCCF8091B900887F883079F0809159
:10035000B900887F803151F08091B900282F30E0BA
:10036000287F30702115310509F041C0990F916047
:100370009093BB0084E88093BC008091BC0087FF11
:10038000FCCF8091B900887F8831C1F08091B9009D
:10039000887F803499F08091B900282F30E0287F41
:1003A00030702115310519F509C081E00E94E40083
:1003B000F801EC0FFD1F8083219608C0C0E0D0E05B
:1003C000E42EFF2467010894C108D108CC15DD058F
:1003D00064F380E00E94E4000E0D1F1D01501040E8
:1003E000F801808384E98093BC0020E030E0C901FB
:1003F000DF91CF911F910F91FF90EF90DF90CF9001
:100400000895DF93CF9300D0CDB7DEB78EEF898309
:1004100081E58A8388E2BE016F5F7F4F41E020E083
:100420000E942E0188E2BE016E5F7F4F41E020E016
:100430000E942E010F900F90CF91DF910895DF93CE
:10044000CF9300D00F92CDB7DEB7823041F083302A
:1004500041F0813011F488E205C080E003C084E1FE
:1004600001C08CE3860F8B8385E48A838EEF8983BA
:1004700088E2BE016F5F7F4F41E020E00E942E01C5
:1004800088E2BE016E5F7F4F41E020E00E942E01B6
:1004900088E2BE016D5F7F4F41E020E00E942E01A7
:1004A0000F900F900F90CF91DF910895DF93CF932E
:1004B0000F92CDB7DEB7898388E2BE016F5F7F4FB1
:1004C00041E020E00E942E010F90CF91DF9108952E
:1004D000EF92FF920F931F93DF93CF930F92CDB7BD
:1004E000DEB78C017E010894E11CF11C07C08983F2
:1004F00088E2B70141E020E00E942E01F8018191DD
:100500008F018823A1F70F90CF91DF911F910F9159
:10051000FF90EF900895AEE0B0E0E1E9F2E00C94D6
:1005200047050D891E898F89988D97FF02C080E04D
:1005300090E801979E838D831A83098386E08C83DC
:100540009E01255E3F4FCE010196698D7A8DA901EE
:100550000E94BC024D815E8157FD0AC02F81388503
:10056000421753070CF49A01020F131FF80110826F
:100570002E96E4E00C946305ABE0B0E0E2ECF2E030
:100580000C9439053C012B015A01FC01178216829B
:10059000838181FD03C06FEF7FEFC6C19AE0892E92
:1005A0001E010894211C311CF3012381F20123FD5B
:1005B000859123FF81912F01882309F4B2C18532EF
:1005C00039F423FD859123FF81912F01853229F490
:1005D00090E0B3010E94AF04E7CF982FFF24EE24F0
:1005E0009924FFE1FF15D0F09B3269F09C3228F48A
:1005F000903259F0933291F40EC09D3249F090330D
:1006000069F441E024C052E0F52A84E0F82A28C0C9
:1006100098E0F92A25C0E0E1FE2A22C0F7FC29C0B3
:10062000892F80538A3070F4F6FE05C0989C902C78
:100630001124980E15C0E89CE02C1124E80EF0E27D
:10064000FF2A0EC09E3229F4F6FC6BC140E4F42A66
:1006500007C09C3619F450E8F52A02C0983649F4D0
:10066000F20123FD959123FF91912F01992309F028
:10067000B8CF892F8554833018F08052833038F4F6
:1006800044E050E0A40EB51E5FE359830FC09336DB
:1006900031F0933779F0933509F056C020C0F50159
:1006A0008081898342E050E0A40EB51E610101E023
:1006B00010E012C0F501C080D180F6FC03C06FEFDE
:1006C0007FEF02C0692D70E042E050E0A40EB51E3D
:1006D000C6010E94A4048C015FE7F52214C0F50155
:1006E000C080D180F6FC03C06FEF7FEF02C0692DA0
:1006F00070E042E050E0A40EB51EC6010E949904CD
:100700008C0150E8F52AF3FE07C01AC080E290E0A1
:10071000B3010E94AF04EA948E2D90E008171907E8
:10072000A8F30EC0F601F7FC8591F7FE81916F01E9
:1007300090E0B3010E94AF04E110EA940150104030
:100740000115110579F7EAC0943611F0993669F56B
:10075000F7FE08C0F501208131814281538184E098
:1007600090E00AC0F501808191819C01442737FD0A
:100770004095542F82E090E0A80EB91E9FE6F92222
:1007800057FF09C050954095309521953F4F4F4FE9
:100790005F4FE0E8FE2ACA01B901A1012AE030E07A
:1007A0000E94DB04D82ED21840C0953729F41F2DA3
:1007B0001F7E2AE030E01DC01F2D197F9F3661F09B
:1007C000903720F4983509F0ACC00FC0903739F05D
:1007D000983709F0A6C004C028E030E00AC01061D4
:1007E00014FD146020E130E004C014FD166020E127
:1007F00032E017FF08C0F501608171818281938129
:1008000044E050E008C0F50180819181BC0180E0A6
:1008100090E042E050E0A40EB51EA1010E94DB046E
:10082000D82ED2188FE7F82EF122F6FE0BC05EEF1D
:10083000F522D91438F4F4FE07C0F2FC05C08FEE9F
:10084000F82202C01D2D01C0192DF4FE0DC0FE01BD
:10085000ED0DF11D8081803319F499EEF92208C065
:100860001F5FF2FE05C003C08F2D867809F01F5F61
:100870000F2DF3FC14C0F0FE0FC01E1510F09D2CC0
:100880000BC09D2C9E0C911A1E2D06C080E290E09C
:10089000B3010E94AF041F5F1E15C0F304C01E15F4
:1008A00010F4E11A01C0EE2404FF0FC080E390E0D1
:1008B000B3010E94AF0402FF1DC001FD03C088E721
:1008C00090E00EC088E590E00BC0802F867891F014
:1008D00001FF02C08BE201C080E2F7FC8DE290E0F4
:1008E000B3010E94AF0406C080E390E0B3010E9410
:1008F000AF049A94D914C0F3DA94F101ED0DF11D0F
:10090000808190E0B3010E94AF04DD20A9F706C00A
:1009100080E290E0B3010E94AF04EA94EE20C1F7B8
:1009200043CEF30166817781CB012B96E2E10C94F3
:100930005505FC010590615070400110D8F7809575
:1009400090958E0F9F1F0895FC016150704001909B
:100950000110D8F7809590958E0F9F1F08950F93E3
:100960001F93CF93DF938C01EB018B8181FF1BC021
:1009700082FF0DC02E813F818C819D812817390710
:1009800064F4E881F9810193F983E88306C0E8857E
:10099000F985802F0995892B31F48E819F810196ED
:1009A0009F838E8302C00FEF1FEFC801DF91CF91AD
:1009B0001F910F910895FA01AA27283051F1203193
:1009C00081F1E8946F936E7F6E5F7F4F8F4F9F4FE3
:1009D000AF4FB1E03ED0B4E03CD0670F781F891F25
:1009E0009A1FA11D680F791F8A1F911DA11D6A0FF3
:1009F000711D811D911DA11D20D009F468943F91A6
:100A00002AE0269F11243019305D3193DEF6CF01A4
:100A10000895462F4770405D4193B3E00FD0C9F76A
:100A2000F6CF462F4F70405D4A3318F0495D31FDD7
:100A30004052419302D0A9F7EACFB4E0A69597952A
:100A4000879577956795BA95C9F700976105710500
:100A500008959B01AC010A2E06945795479537954A
:100A60002795BA95C9F7620F731F841F951FA01DA4
:100A700008952F923F924F925F926F927F928F9242
:100A80009F92AF92BF92CF92DF92EF92FF920F931D
:100A90001F93CF93DF93CDB7DEB7CA1BDB0B0FB627
:100AA000F894DEBF0FBECDBF09942A8839884888E4
:100AB0005F846E847D848C849B84AA84B984C8847A
:100AC000DF80EE80FD800C811B81AA81B981CE0F71
:100AD000D11D0FB6F894DEBF0FBECDBFED01089556
:040AE000F894FFCFB8
:100AE400253032642F253032642F2530326400459E
:0E0AF40045343539204C43442054657374005A
:00000001FF
