:100000000C9434000C9451000C9451000C94510049
:100010000C94F6000C9451000C9451000C94510077
:100020000C9451000C9451000C9451000C9451000C
:100030000C9451000C9451000C9451000C945100FC
:100040000C9451000C9451000C9451000C945100EC
:100050000C9451000C9451000C9451000C945100DC
:100060000C9451000C94510011241FBECFEFD8E026
:10007000DEBFCDBF12E0A0E0B1E0E2E1F8E102C0F6
:1000800005900D92A234B107D9F725E0A2E4B2E0C1
:1000900001C01D92A338B207E1F70E94D4050C9469
:1000A000070C0C94000029B130E0082E02C03595F1
:1000B00027950A94E2F720FD1BC0EFEFF3E231979A
:1000C000F1F700C0000021E030E002C0220F331F32
:1000D0008A95E2F789B190E082239323892BD1F3AB
:1000E0008FEF93E20197F1F700C0000081E00895DF
:1000F00080E0089521E030E0A90102C0440F551FBF
:100100008A95E2F7CA0195B1662319F0892B85B962
:10011000089580958923FBCF96B1892F847091FD36
:100120000DC0811107C0109252028091520280933B
:100130006102089581E080935202F7CF811102C0DD
:1001400082E0F9CF83E0F7CF80914F029091500287
:10015000892B49F4809104019091050101969093B7
:1001600005018093040180914F0290915002029703
:1001700071F480910201909103012091420230912B
:100180004302820F931F909343028093420208958B
:1001900080914F0290915002892B49F48091040183
:1001A000909105010197909305018093040180913E
:1001B0004F02909150020297C1F4209102013091B8
:1001C00003018091420290914302821B930B909312
:1001D000430280934202809142029091430297FF32
:1001E00004C0109243021092420208951F920F928F
:1001F0000FB60F9211242F933F934F935F936F93FA
:100200007F938F939F93AF93BF93EF93FF9386B1A9
:10021000982F947082702091520221110CC0992362
:1002200021F081E08093610221C0882309F182E0FE
:100230008093610208C020915202213059F491113B
:1002400005C0109261020E94C80012C0882381F08C
:1002500083E0E8CF20915202223041F5992311F03A
:1002600083E0E6CF811104C0109261020E94A400D5
:100270009091610280915202981739F081E0809349
:1002800062028091610280935202FF91EF91BF91CF
:10029000AF919F918F917F916F915F914F913F911E
:1002A0002F910F900FBE0F901F901895911102C0C3
:1002B00082E0B8CF8111DCCF81E0BACFCF93DF935A
:1002C00000D000D01F92CDB7DEB7CE01019625E059
:1002D000FC0111922A95E9F70E94D1042B813C81FF
:1002E00032272327322730934902209348028091F6
:1002F0004D028823C1F049E0429FC001439F900D09
:10030000112465E070E00E94B208605C7E4F70933B
:100310004702609346020F900F900F900F900F903E
:10032000DF91CF9108953093470220934602F3CF97
:10033000809104019091050120914602309147027D
:100340008217930718F4299A5B9A089529985B9865
:1003500008950F931F93CF93DF93CDB7DEB76597C3
:100360000FB6F894DEBF0FBECDBF60E080E00E9404
:100370001B038FE091E00E940F0380910401909194
:1003800005010091040110910501E0914602F091F0
:1003900047022AE030E0B9010E94C6089F938F937C
:1003A000C801B9010E94C6087F936F93CF01B901BC
:1003B0000E94B2089F938F937F936F9384E291E0A2
:1003C0009F938F931F9285E18F938E010F5F1F4F35
:1003D0001F930F930E94DA0860E081E00E941B03E4
:1003E000C8010E940F0360E083E00E941B038FE3BB
:1003F00091E00E940F030FB6F894DEBF0FBECDBF91
:1004000080914D0262E1882391F080E00E941B03FD
:1004100084E591E00E940F0365960FB6F894DEBF65
:100420000FBECDBFDF91CF911F910F91089581E055
:10043000EDCF0F931F93CF93DF93CDB7DEB76597C3
:100440000FB6F894DEBF0FBECDBF60E080E00E9423
:100450001B0386E591E00E940F0380914A02909170
:100460004B0268E170E00E94C6089F938F937F93D0
:100470006F93EAE5F2E080819181805D97409F93E0
:100480008F9383811F928F9382811F928F938CE62B
:1004900091E09F938F931F9285E18F938E010F5F61
:1004A0001F4F1F930F930E94DA0860E081E00E94C3
:1004B0001B03C8010E940F0360E083E00E941B033E
:1004C00089E891E00E940F030FB6F894DEBF0FBEDB
:1004D000CDBF65960FB6F894DEBF0FBECDBFDF91DE
:1004E000CF911F910F910895FF920F931F93CF9378
:1004F000DF93CDB7DEB7AA970FB6F894DEBF0FBE75
:10050000CDBF60E080E00E941B0380914202909189
:100510004302E0914202F091430228E130E0B90148
:100520000E94C6089F938F93CF01B9010E94C6080D
:100530007F936F938EE991E09F938F931F9285E154
:10054000F82EFF928E010A5E1F4F1F930F930E9499
:10055000DA08C8010E940F0360E081E00E941B03DB
:100560008091020190910301E0914202F0914302D7
:100570009F938F93EE0FFF1FED59FD4F81818F9356
:1005800080818F93809145028F93809144028F9355
:1005900086EB91E09F938F931F92FF920551110973
:1005A0001F930F930E94DA08C8010E940F0360E0B6
:1005B00083E00E941B0388EC91E00E940F030FB6BA
:1005C000F894DEBF0FBECDBFAA960FB6F894DEBF7B
:1005D0000FBECDBFDF91CF911F910F91FF90089576
:1005E000509A589887E08A95F1F700C0589A089574
:1005F00060E090E080E00C94A103CF93DF931F9222
:10060000CDB7DEB7898320E041E0BE016F5F7F4F49
:1006100088E20E94C2030F90DF91CF910895CF939B
:10062000DF93EC018991811103C0DF91CF9108958F
:100630000E94FD02F7CFCF93DF9300D01F92CDB77A
:10064000DEB79EEF9B8395E49A838150833028F533
:10065000E82FF0E0E45FFE4F8081860F898320E081
:1006600041E0BE016D5F7F4F88E20E94C20320E03F
:1006700041E0BE016E5F7F4F88E20E94C20320E02E
:1006800041E0BE016F5F7F4F88E20E94C2030F907E
:100690000F900F90DF91CF91089580E0DECFCF9340
:1006A000DF9300D0CDB7DEB78EEF8A8381E58983F3
:1006B00020E041E0BE016E5F7F4F88E20E94C203EE
:1006C00020E041E0BE016F5F7F4F88E20E94C203DD
:1006D0000F900F90DF91CF91089584EA8093BC0032
:1006E0008091BC0087FFFCCF8091B900887F883063
:1006F00051F08091B900887F803129F08091B90054
:10070000887F90E0089590E080E008958093BB009A
:1007100084E88093BC008091BC0087FFFCCF80916F
:10072000B900887F883151F08091B900887F80348A
:1007300029F08091B900887F90E0089590E080E0F2
:10074000089527B1206327B928B1662379F0206383
:1007500028B927B12F7C27B98130910569F040F085
:100760008230910559F0039759F008952F7CF0CF0E
:1007700088E98093B800089588E4FBCF88E1F9CF39
:100780008CE0F7CFFF920F931F93CF93DF93F82E58
:10079000EB01042F122F0E946D030097A9F48F2DF7
:1007A000880F0E948603009779F4FE01402F50E0E5
:1007B000A4E89F012C1B3D0B241735075CF0111199
:1007C00003C024E92093BC00DF91CF911F910F91CA
:1007D000FF90089521912093BB00A093BC0020912D
:1007E000BC0027FFFCCF2091B900287F283209F3F5
:1007F0002091B900287F622F70E0D9F2CB01E4CFBD
:100800000F931F93CF93DF93082FEB01142F0E94B8
:100810006D03009741F5802F880F81600E94860349
:10082000009709F5FE01212F2150330BA90164EC3B
:100830009F012C1B3D0B24173507D4F0C40FD51F87
:1008400024E82093BC002091BC0027FFFCCF20911E
:10085000B900287F2835F9F02091B900287F288336
:1008600024E92093BC00DF91CF911F910F9108954F
:100870006093BC002091BC0027FFFCCF2091B90001
:10088000287F203529F02091B900287F2193D0CFEF
:100890002091BB00FBCF2091BB00E1CFCF93DF9332
:1008A000CDB7DEB72F970FB6F894DEBF0FBECDBF22
:1008B00060E090E080E00E94A1031F8620E041E01C
:1008C000BE01615F7F4F88E60E94C20347E0BE0120
:1008D000685F7F4F88E60E9400042E854D855C8509
:1008E0006A8579858885E22FE295EF709AE02F700E
:1008F00030E0E99F200D311D11242053384F3A83F9
:100900002983342F32953F704F70399F400D112449
:10091000352F32953F705F70399F500D1124E62FAF
:10092000F0E034E0F595E7953A95E1F7E3706F7004
:10093000E99F600D1124372F32953F707F70399FEA
:10094000700D1124E82FF0E0A4E0F595E795AA9545
:10095000E1F7E7708F703A81E99F800D112490E0F4
:100960002F960FB6F894DEBF0FBECDBFDF91CF91AB
:1009700008955198599881E008958CE08A95F1F78F
:1009800000004999FECF8CE08A95F1F70000499B61
:10099000FECF82E68A95F1F7000089B186958170D5
:1009A0000895AF92BF92CF92DF92EF92FF920F9392
:1009B0001F93CF93DF93CDB7DEB7C456D1090FB6DF
:1009C000F894DEBF0FBECDBF8C01519A8FEF93E23A
:1009D0000197F1F700C0000051989CE09A95F1F75B
:1009E00000004999FECFECE0EA95F1F70000499B41
:1009F000FECFCE0101966C017E0199E2E90EF11C59
:100A000056010E94BD04F50181935F01EE16FF06B9
:100A1000C1F7F801A8014B5F5F4F6191D60127E054
:100A200030E08D91082E000C990B022E01C0880F2A
:100A30000A94EAF7682B2150310998F7DF011197E2
:100A40006C9398E0C90ED11C4E175F0731F7F8017F
:100A50002081318132272327322782819381982771
:100A600089279827EAE0F0E0BF010E94C6089F931B
:100A70008F937F936F93C901BF010E94C6089F9314
:100A80008F937F936F9381E192E09F938F931F9257
:100A900084E1D82EDF92CE018F5A9F4F9F938F9380
:100AA0000E94DA08F80181811F928F9380811F9242
:100AB0008F9383E292E09F938F931F92DF92CE01F8
:100AC000CD969F938F930E94DA08F80184811F923C
:100AD0008F9383811F928F9382811F928F938FE2D6
:100AE00092E09F938F931F92DF92FF92EF920E946A
:100AF000DA08FFEF2FE786E1F15020408040E1F770
:100B000000C000000FB6F894DEBF0FBECDBFCC59B9
:100B1000DF4F0FB6F894DEBF0FBECDBFDF91CF9190
:100B20001F910F91FF90EF90DF90CF90BF90AF900B
:100B300008951F93CF93DF93D8E011E0C0E00E94A7
:100B4000BD048111C12B110FD150C9F78C2FDF913A
:100B5000CF911F910895ECE7F0E08081806480835D
:100B6000808180628083EAE7F0E080818760808313
:100B7000808180688083089580917C00807F80934D
:100B80007C001092790080917C00836080937C00CF
:100B900080917A00806480937A0080917A0086FD4B
:100BA000FCCF809179000895CF93DF9300D000D0DF
:100BB00000D01F92CDB7DEB784B1856884B9219A81
:100BC000539A8BB1846F8BB988B1866088B9589875
:100BD0008091680082608093680080916C008660DC
:100BE00080936C0078940E948C000E94F8020E940E
:100BF000AB050E944F0365E080E00E941B038DED72
:100C000091E00E940F0363E081E00E941B0385EEE8
:100C100091E00E940F032FEF3FE746E12150304063
:100C20004040E1F700C000000E944F038EE090E0DA
:100C30000E94880B80930801882309F4B5C10E94A3
:100C40004E0420935A0230935B0240935C0250930F
:100C50005D0260935E0270935F028093600287E0A2
:100C6000EAE5F2E0A3E5B2E001900D928A95E1F7A2
:100C700060915D0281E090E00E949C0B60915C02BB
:100C800082E090E00E949C0B60915A0270915B029E
:100C900083E090E00E94BA0B1092080160E08EE0C1
:100CA00090E00E949C0B8FEF9FE322E081509040E8
:100CB0002040E1F700C0000040914A0250914B02F1
:100CC000052E000C660B770B86E090E00E94AE0BC1
:100CD0004091040150910501052E000C660B770B25
:100CE0008AE090E00E94AE0B02E010E09924939419
:100CF000EE24E394F12C49E0C42ED12C59E0852E4A
:100D000065E0A62EB12C8091060190910701CC9749
:100D10000CF464C00E944E0429833A834B835C83A5
:100D20006D837E838F8380915802781739F14091CB
:100D30004A0250914B028091440290914502FA017F
:100D4000EE0FFF1FED59FD4F91838083892B21F416
:100D500010930A01009309014F5F5F4F50934B02BC
:100D600040934A02052E000C660B770B86E090E05C
:100D70000E94AE0B10924502109244020E944E0453
:100D800020935302309354024093550250935602DD
:100D90006093570270935802809359020E945E013B
:100DA0000E94980180914F0290915002892B11F47A
:100DB0000E94A90180914F0290915002019711F475
:100DC0000E94190280914F0290915002029711F4F3
:100DD0000E947402109207011092060183E090E0D5
:100DE0000E94BC0580935102813510F090924E0212
:100DF00090914E029923A9F0803598F410924E02FA
:100E0000809144029091450201969093450280930F
:100E1000440280914F0290915002029711F40E9477
:100E2000740280916202882301F10E9498018091EE
:100E30004F0290915002892B71F40E94A9014091B8
:100E4000040150910501052E000C660B770B8AE01A
:100E500090E00E94AE0B80914F0290915002029759
:100E600011F40E9474021092620280914F029091DC
:100E70005002892B09F002C184E00E9453008823AC
:100E800009F4CDC080914D0281112AC090924D028B
:100E900090E080E00E94880B80930801209104017B
:100EA00030910501829EC001839E900D1124B501F1
:100EB0000E94C608605C7E4F709305016093040138
:100EC0004091040150910501052E000C660B770B33
:100ED0008AE090E00E94AE0B0E945E010E94A90190
:100EE0008091090190910A01892B09F4289A809137
:100EF000090190910A01019711F42A9A289880918A
:100F0000090190910A01029711F42F9A2A984A999F
:100F100038C08FEF93E20197F1F700C0000090E036
:100F200080E04A9BF2C0C2970CF4FAC00E944F03C3
:100F300060E080E00E941B0383EF91E00E940F03BA
:100F40008FEF9FED20E1815090402040E1F700C0FD
:100F500000009092080161E08EE090E00E949C0BFE
:100F60003FEF4FE382E0315040408040E1F700C066
:100F700000000E94F0028FEF93E20197F1F700C0AA
:100F8000000080910601909107010196909307015E
:100F9000809306019FEF2FE332E0915020403040D4
:100FA000E1F700C00000AFCE81E090E00E94880B26
:100FB00080935D0282E090E00E94880B80935C0247
:100FC00083E090E00E94960B90935B0280935A021C
:100FD00086E090E00E94900B70934B0260934A026F
:100FE0008AE090E00E94900B7093050160930401E9
:100FF00090E080E00E94880B80934D020E944E0496
:10100000209353023093540240935502509356025A
:101010006093570270935802809359023DCE85E049
:101020000E9453008823E9F080914D02882309F43F
:1010300057CF10924D0290E080E00E94880B809381
:10104000080120910401309105012054314045E010
:10105000429FC001439F900D1124B6010E94C60813
:101060002BCF87E00E945300882309F439CFF092F8
:101070005002E0924F020E94190232CF80914F023B
:10108000909150020197B9F486E00E9453008823A2
:1010900029F01092500210924F0220CF87E00E9458
:1010A0005300882309F41CCF1093500200934F0281
:1010B0000E94740215CF80914F02909150020297C6
:1010C00009F00ECF84E00E945300882351F08091F4
:1010D0000201909103010196909303018093020114
:1010E000E7CF85E00E945300882369F080910201D8
:1010F0009091030118161906DCF680910201909177
:1011000003010197E9CF86E0ADCF2FEF3FE342E047
:10111000215030404040E1F700C00000019601CF6F
:101120000E944F0360E080E00E941B0385E092E094
:101130000E940F039FEF2FED30E19150204030408F
:10114000E1F700C000001092080160E08EE090E03E
:101150000E949C0B4FEF8FE392E041508040904003
:10116000E1F705CFAA1BBB1B51E107C0AA1FBB1F9C
:10117000A617B70710F0A61BB70B881F991F5A9523
:10118000A9F780959095BC01CD01089597FB072E96
:1011900016F4009407D077FD09D00E94B20807FC2E
:1011A00005D03EF4909581959F4F08957095619577
:1011B0007F4F0895AEE0B0E0E0EEF8E00C94DE0B77
:1011C0000D891E898F89988D26E02C831A830983C7
:1011D00097FF02C080E090E801979E838D83AE0167
:1011E000455E5F4F698D7A8DCE0101960E940A0996
:1011F0004D815E8157FD0AC02F8138854217530704
:101200000CF49A01020F131FF80110822E96E4E0ED
:101210000C94FA0BABE0B0E0E0E1F9E00C94D00BF9
:101220007C013B018A01FC0117821682838181FFC8
:10123000C8C1CE0101965C01F7019381F30193FDD2
:10124000859193FF81913F01882309F453C1853231
:1012500039F493FD859193FF81913F01853229F403
:10126000B70190E00E94FA0AE7CF912C212C312C93
:10127000FFE1F31538F08B3211F190F4803209F16F
:10128000833229F137FC3CC020ED280F2A3050F57D
:1012900036FE20C08AE0989E200D1124922E06C0B2
:1012A0008D3291F0803371F7689430F8F30193FD3B
:1012B000859193FF81913F018111DACF21C068941C
:1012C00031F8689432F8F2CF689433F8EFCF68942D
:1012D00034F8ECCFEAE02E9E200D1124222E6894E3
:1012E00035F8E4CF8E3229F436FC04C1689436F820
:1012F000DDCF8C3619F4689437F8D8CF8836B1F240
:10130000982F9F7D95549330E0F08336A1F1833779
:10131000C1F1833509F063C02801F2E04F0E511C82
:10132000F801C080D180692D70E036FC02C06FEFFB
:101330007FEFC6010E94E40A4C01689437F88201ED
:101340000AC00C5F1F4FFFE3F98388248394912C1C
:101350006501E89437F833FE2DC0522C81149104B6
:1013600071F5552009F468CFB70180E290E00E9442
:10137000FA0A5A94F6CFF801808189830E5F1F4FD5
:10138000E4CF2801F2E04F0E511CF801C080D1805B
:10139000692D70E036FC02C06FEF7FEFC6010E943E
:1013A000EF0A4C018201D5CFB70180E290E00E94A4
:1013B000FA0A2A942814190409F0B0F7CECFF601DE
:1013C00037FC859137FE81916F01B70190E00E9453
:1013D000FA0A51105A94F1E08F1A9108BFCF84365F
:1013E00019F0893609F077C0F80137FE6BC06081CB
:1013F0007181828193810C5F1F4FF32DFF763F2E09
:1014000097FF09C090958095709561957F4F8F4F9C
:101410009F4F689437F82AE030E0A5010E942A0B1C
:10142000C82ECA188C2C432C36FE0CC0E89440F809
:10143000C91440F434FE05C032FC03C0F32DFE7E17
:101440004F2E892C44FE95C0FE01EC0DF11D8081CC
:10145000803309F087C0242D297E422E842D887088
:10146000582E43FC95C040FE8FC09C2C821418F46B
:101470002C0C922C981844FE91C0B70180E390E0A8
:101480000E94FA0A42FE09C088E790E041FE02C0CD
:1014900088E590E0B7010E94FA0AC91408F48AC0EE
:1014A000CA94D12C9FEFC91AD90ACA0CDB1CF601C9
:1014B00082916F01B70190E00E94FA0AAC14BD045A
:1014C000B1F74FCF60817181072E000C880B990B0B
:1014D0000E5F1F4F92CFD32CE894D4F82AE030E06F
:1014E000853739F1232D297FD22E8F3601F148F42B
:1014F0008835A9F0F701868197812B96E2E10C945B
:10150000EC0B803749F08837A9F7D4FE02C0689405
:10151000D2F820E130E00DC06894D4F8F6CF34FE64
:1015200003C0822F8660D82E20E132E002C028E07E
:1015300030E0F801D7FE0FC0608171818281938114
:101540000C5F1F4FA5010E942A0BC82ECA183D2C04
:10155000E89437F867CF6081718190E080E00E5F9A
:101560001F4FF0CF42FC02C0839478CF83948394C2
:1015700075CF842D867809F471CFF6CFB70180E25C
:1015800090E00E94FA0A83948214C0F3512C73CF26
:10159000522C5818821408F46ECFF8CF842D867818
:1015A00009F47BCF8BE241FE80E247FC8DE2B7017C
:1015B00090E071CFB70180E390E00E94FA0A9A941C
:1015C0006CCF8FEF9FEF99CFFC0105906150704079
:1015D0000110D8F7809590958E0F9F1F0895FC01FC
:1015E0006150704001900110D8F7809590958E0F52
:1015F0009F1F08950F931F93CF93DF93182F092FE9
:10160000EB018B8181FD09C01FEF0FEF812F902F20
:10161000DF91CF911F910F91089582FF14C02E8109
:101620003F818C819D81281739073CF4E881F9813D
:10163000CF0101969983888310838E819F810196C3
:101640009F838E83E3CFE885F985812F0995892BC8
:10165000A1F3DACFFA01AA27283051F1203181F124
:10166000E8946F936E7F6E5F7F4F8F4F9F4FAF4FAA
:10167000B1E03ED0B4E03CD0670F781F891F9A1FBD
:10168000A11D680F791F8A1F911DA11D6A0F711D71
:10169000811D911DA11D20D009F468943F912AE07D
:1016A000269F11243019305D3193DEF6CF01089565
:1016B000462F4770405D4193B3E00FD0C9F7F6CF96
:1016C000462F4F70405D4A3318F0495D31FD40525E
:1016D000419302D0A9F7EACFB4E0A69597958795F4
:1016E00077956795BA95C9F70097610571050895D3
:1016F0009B01AC010A2E069457954795379527957F
:10170000BA95C9F7620F731F841F951FA01D089516
:10171000F999FECF92BD81BDF89A992780B50895B9
:10172000A6E1B0E044E050E00C94C20BA8E1B0E0C8
:1017300042E050E00C94C20B262FF999FECF92BDE7
:1017400081BDF89A019700B4021639F01FBA20BD86
:101750000FB6F894FA9AF99A0FBE08950396272FB8
:101760000E949D0B0E949C0B252F0E949D0B242FF5
:101770000C949D0B0196272F0E949D0B0C949C0BA3
:10178000DC01CB01FC01F999FECF06C0F2BDE1BD41
:10179000F89A319600B40D9241505040B8F7089530
:1017A0002F923F924F925F926F927F928F929F9271
:1017B000AF92BF92CF92DF92EF92FF920F931F935F
:1017C000CF93DF93CDB7DEB7CA1BDB0B0FB6F89410
:1017D000DEBF0FBECDBF09942A88398848885F8450
:1017E0006E847D848C849B84AA84B984C884DF80C1
:1017F000EE80FD800C811B81AA81B981CE0FD11DA5
:101800000FB6F894DEBF0FBECDBFED010895F8947A
:02181000FFCF08
:1018120010000100E6003C00010100504014544158
:10182200637475616C3A20205468726573683A205B
:10183200202066002532642E2531642020202020BD
:101842002532642E25316420202020202063003E92
:1018520054454D50202054494D4520204255424286
:101862004C4553003E00537461727465643A202003
:1018720020456C61707365643A2020002530326423
:101882002F253032642F25303264202025326464C3
:101892002025326468202020002054454D50203EEF
:1018A20054494D452020425542424C455300437510
:1018B20072723A2040253264642532646820202006
:1018C200696E633A20002534642020253464202088
:1018D20020202020253264002054454D50202054E1
:1018E200494D45203E425542424C45530057656C96
:1018F200636F6D6500536D617274204D656164653F
:101902007279005374617274696E67206E65772014
:101912006272657700536176696E672062726577DD
:1019220000483A2025642E256420543A2025642E4E
:10193200256400303A20256420313A2025640032A3
:101942003A20256420333A20256420343A20256445
:02195200000093
:00000001FF
