:100000000C9434000C9451000C9451000C94510049
:100010000C9400010C9451000C9451000C9451006C
:100020000C9451000C9451000C9451000C9451000C
:100030000C9451000C9451000C9451000C945100FC
:100040000C9451000C9451000C9451000C945100EC
:100050000C9451000C9451000C9451000C945100DC
:100060000C9451000C94510011241FBECFEFD8E026
:10007000DEBFCDBF12E0A0E0B1E0E8E2FBE102C0EC
:1000800005900D92AE33B107D9F715E0AEE3B2E0BB
:1000900001C01D92AF37B107E1F70E9477030C94BE
:1000A000920D0C94000029B1992787FD909530E0BE
:1000B000082E02C0359527950A94E2F720FF02C06A
:1000C00080E00895E0E0F4E23197F1F721E030E0DC
:1000D00002C0220F331F8A95E2F789B190E0822394
:1000E0009323892BD1F380E094E20197F1F781E02B
:1000F0000895482F552747FD5095662359F025B19F
:1001000081E090E002C0880F991F4A95E2F7282B02
:1001100025B9089525B181E090E002C0880F991FAC
:100120004A95E2F78095822385B9089586B1982F84
:10013000947081FD07C0992319F410924E0209C0F2
:1001400081E005C0992311F482E001C083E080932F
:100150004E0280914E0280935D02089580913E028E
:1001600090913F02892B49F48091070290910802F7
:100170000196909308028093070280913E0290912D
:100180003F02029771F420914B0230914C02809112
:100190000A0290910B02820F931F90934C0280935E
:1001A0004B02089580913E0290913F02892B49F4C1
:1001B0008091070290910802019790930802809322
:1001C000070280913E0290913F020297C1F4809114
:1001D0004B0290914C0220910A0230910B02821B3B
:1001E000930B90934C0280934B0280914B02909121
:1001F0004C0297FF04C010924C0210924B020895DB
:100200001F920F920FB60F9211242F933F934F938B
:100210005F936F937F938F939F93AF93BF93EF936E
:10022000FF9386B1982F9470282F227080914E02F0
:10023000882341F4992311F081E021C0222359F150
:1002400082E025C080914E02813049F4992319F44F
:1002500010925D021EC02223F1F083E010C0809155
:100260004E02823049F4992311F083E010C022231A
:1002700091F410925D0205C0992331F482E08093DD
:100280005D020E94AE0007C0222329F481E0809322
:100290005D020E94D20090915D0280914E029817FB
:1002A00039F081E080935E0280915D0280934E027E
:1002B000FF91EF91BF91AF919F918F917F916F913E
:1002C0005F914F913F912F910F900FBE0F901F9014
:1002D0001895209107023091080280914702909171
:1002E00048022817390718F4299A5B9A0895299823
:1002F0005B980895509A589887E08A95F1F7589A34
:100300000895CF92DF92EF92FF920F931F93DF93A6
:10031000CF93CDB7DEB7AA970FB6F894DEBF0FBE66
:10032000CDBF80E060E00E94D40680914B029091A6
:100330004C02E0904B02F0904C022DB73EB72A5091
:1003400030400FB6F8943EBF0FBE2DBFEDB7FEB7DD
:1003500031968E010F5F1F4FADB7BEB712961C933B
:100360000E93119725E1C22ED12CD382C28220E0B8
:1003700031E03583248368E170E00E94520A77837C
:100380006683C70168E170E00E94520A9187808706
:100390000E94650AEDB7FEB73A960FB6F894FEBF15
:1003A0000FBEEDBFC8010E941D0781E060E00E9402
:1003B000D406A0914B02B0914C0220910A023091D8
:1003C0000B028DB79EB70C970FB6F8949EBF0FBE69
:1003D0008DBF4DB75EB74F5F5F4F8E010A5E1F4FF7
:1003E000EDB7FEB712830183FA01D382C28288E19E
:1003F00091E0958384838091490290914A0297838A
:100400008683AA0FBB1FA15ABD4F8D919C919187E6
:100410008087338722870E94650A2DB73EB7245F05
:100420003F4F0FB6F8943EBF0FBE2DBFC8010E94CC
:100430001D0783E060E00E94D4068AE291E00E94FA
:100440001D07AA960FB6F894DEBF0FBECDBFCF91A1
:10045000DF911F910F91FF90EF90DF90CF90089563
:100460000F931F93DF93CF93CDB7DEB765970FB68A
:10047000F894DEBF0FBECDBF80E060E00E94D406DE
:100480008FE391E00E941D072091430230914402C6
:100490008DB79EB740970FB6F8949EBF0FBE8DBF25
:1004A000EDB7FEB731968E010F5F1F4FADB7BEB7E8
:1004B00012961C930E93119785E190E093838283AB
:1004C00085E591E095838483809158028683178225
:1004D000809159028087118680915602909157022F
:1004E000805D974093878287C90168E170E00E9430
:1004F000520A75876487C90168E170E00E94520A58
:10050000978786870E94650A8DB79EB740960FB67B
:10051000F8949EBF0FBE8DBF81E060E00E94D406BC
:10052000C8010E941D0783E060E00E94D40682E7B4
:1005300091E00E941D0765960FB6F894DEBF0FBECE
:10054000CDBFCF91DF911F910F910895CF92DF9290
:10055000EF92FF920F931F93DF93CF93CDB7DEB748
:1005600065970FB6F894DEBF0FBECDBF80E060E0A8
:100570000E94D40687E891E00E941D07209147025F
:10058000309148020091070210910802C0900702C2
:10059000D09008028DB79EB70E970FB6F8949EBF05
:1005A0000FBE8DBFEDB7FEB731967E010894E11CFA
:1005B000F11CADB7BEB71296FC92EE92119785E191
:1005C00090E0938382838CE991E095838483C901D1
:1005D0006AE070E00E943E0A77836683C9016AE0A0
:1005E00070E00E943E0A91878087C8016AE070E04F
:1005F0000E94520A73876287C6016AE070E00E9417
:10060000520A958784870E94650A8DB79EB70E9619
:100610000FB6F8949EBF0FBE8DBF81E060E00E94D0
:10062000D406C7010E941D0783E060E00E94D40643
:1006300087EB91E00E941D0780914102882311F011
:1006400080E001C081E062E10E94D4068CEC91E080
:100650000E941D0765960FB6F894DEBF0FBECDBF92
:10066000CF91DF911F910F91FF90EF90DF90CF908E
:100670000895DF93CF9300D000D00F92CDB7DEB7AF
:10068000FE01319685E0DF011D928A95E9F7CF01E1
:100690000E9410099B8180E02C8130E0282B392BAF
:1006A000309346022093450280914102882399F0BD
:1006B000C90143E0880F991F4A95E1F7820F931F04
:1006C00065E070E00E943E0A605C7E4F70934802D5
:1006D0006093470204C030934802209347020F9072
:1006E0000F900F900F900F90CF91DF9108954F9240
:1006F0005F926F927F928F929F92AF92BF92CF92B2
:10070000DF92EF92FF920F931F93DF93CF93CDB7BA
:10071000DEB72E970FB6F894DEBF0FBECDBF84B103
:10072000856884B9219A539A8BB1846F8BB988B14B
:10073000866088B9589880916800826080936800CC
:1007400080916C00866080936C0078940E94960083
:100750000E9440070E94150A0E94B60680E065E0EC
:100760000E94D4068EEC91E00E941D0781E063E0B8
:100770000E94D40686ED91E00E941D0780E197E279
:1007800028EB30E0F9013197F1F70197D9F70E9492
:10079000B6068EE090E00E94730C809304028823DA
:1007A00081F10E946308288739874A875B876C87B5
:1007B0007D878E87A6E5B2E0FE01389687E001903E
:1007C0000D928150E1F7AFE4B2E0E6E5F2E087E0B8
:1007D00001900D928150E1F781E090E06091590223
:1007E0000E94870C82E090E0609158020E94870C82
:1007F000609156027091570283E090E00E94A50C30
:1008000059C081E090E00E94730C8093590282E00D
:1008100090E00E94730C8093580283E090E00E9465
:10082000810C909357028093560286E090E00E94DC
:100830007B0C70934402609343028AE090E00E9434
:100840007B0C709308026093070280E090E00E94A6
:10085000730C80934102EE24FF2400E110E011C0EC
:1008600010930D0200930C02C8010E947B0CF8014A
:10087000E15BFD4F718360830894E11CF11C0E5F06
:100880001F4F8091430290914402E816F90644F309
:100890000E946308288739874A875B876C877D8732
:1008A0008E87AFE4B2E0FE01389687E001900D92AA
:1008B0008150E1F7109204028EE090E060E00E9427
:1008C000870C88EE93E028EB30E0F9013197F1F7DF
:1008D0000197D9F74091430250914402662757FD92
:1008E0006095762F86E090E00E94990C4091070277
:1008F00050910802662757FD6095762F8AE090E0B8
:100900000E94990C2E010894411C511C88E0882EED
:10091000912C8C0E9D1E02E0602E712CFF24F3940E
:1009200011E0C12ED12CA12CB4E2BB2E08EB10E0BB
:100930008091050290910602CC970CF486C00E942B
:100940006308288739874A875B876C877D878E870E
:10095000D201F40187E001900D928150E1F79E8170
:1009600080915402981709F43FC0E0914302F0913E
:100970004402EE0FFF1FE15AFD4F80914902909112
:100980004A0291838083892B21F470920302609242
:10099000020280914302909144020896880F991FA9
:1009A00090930D0280930C024091490250914A02AB
:1009B000662757FD6095762F0E94990C409143025F
:1009C000509144024F5F5F4F509344024093430263
:1009D000662757FD6095762F86E090E00E94990C7F
:1009E00010924A02109249020E94630828873987B0
:1009F0004A875B876C877D878E87AFE4B2E0F4011E
:100A000087E001900D928150E1F70E9439030E9426
:100A1000690180913E0290913F02892B11F40E945E
:100A2000A60280913E0290913F02019711F40E942C
:100A3000300280913E0290913F02029711F40E9491
:100A40008101109206021092050283E090E00E945C
:100A5000260A982F80934D02813510F0F0924002C3
:100A6000809140028823A9F0903598F410924002BA
:100A70008091490290914A02019690934A02809394
:100A8000490280913E0290913F02029711F40E9428
:100A9000810180915E02882301F10E9469018091A9
:100AA0003E0290913F02892B71F40E94A602409170
:100AB000070250910802662757FD6095762F8AE05D
:100AC00090E00E94990C80913E0290913F02029723
:100AD00011F40E94810110925E0280913E02909179
:100AE0003F02892B09F061C084E00E9453008823F3
:100AF00021F180914102882309F0A7C0F0924102C0
:100B000080E090E00E94730C809304022091070221
:100B100030910802C90163E0880F991F6A95E1F7D7
:100B2000820F931F65E070E00E94520A605C7E4F66
:100B3000709308026093070227C085E00E9453006B
:100B4000882389F180914102882309F47EC01092A4
:100B5000410280E090E00E94730C80930402209197
:100B6000070230910802C901880F991F880F991F49
:100B7000820F931F8054964069E070E00E94520AF1
:100B80007093080260930702409107025091080297
:100B9000662757FD6095762F8AE090E00E94990CB9
:100BA0000E94390311C087E046C080913E029091B7
:100BB0003F020197B1F486E00E945300882339F088
:100BC00010923F0210923E020E94A6023EC087E0B1
:100BD0000E9453008823C9F170923F0260923E0246
:100BE00026C080913E0290913F02029771F584E009
:100BF0000E945300882331F080910A0290910B02E9
:100C0000019611C085E00E945300882399F08091DD
:100C10000A0290910B02181619064CF480910A02F0
:100C200090910B02019790930B0280930A020E940D
:100C300081010BC086E00E945300882331F0D092DE
:100C40003F02C0923E020E943002809102029091C7
:100C50000302892B21F480E061E00E9479008091F9
:100C6000020290910302019741F482E061E00E9448
:100C7000790080E060E00E9479008091020290910A
:100C80000302029741F487E061E00E94790082E06C
:100C900060E00E9479004A9958C0C5010197F1F7B8
:100CA00020E030E009C088EE93E0F8013197F1F7D9
:100CB0000197D9F72F5F3F4F4A9BF5CF223331057C
:100CC00004F10E94B60680E060E00E94D40684EE43
:100CD00091E00E941D078CE49DE1F8013197F1F746
:100CE0000197D9F7F09204028EE090E061E00E9453
:100CF000870C88EE93E0F8013197F1F70197D9F767
:100D00001FC00E94B60680E060E00E94D40686EF15
:100D100091E00E941D078CE49DE1F8013197F1F705
:100D20000197D9F7109204028EE090E060E00E94F3
:100D3000870C88EE93E0F8013197F1F70197D9F726
:100D40000E947A01C5010197F1F780910502909107
:100D500006020196909306028093050288EE93E0C6
:100D6000F8013197F1F70197D9F7E2CDDF93CF93EF
:100D700000D0CDB7DEB78EEF898381E58A8388E224
:100D8000BE016F5F7F4F41E020E00E94900788E244
:100D9000BE016E5F7F4F41E020E00E9490070F9000
:100DA0000F90CF91DF910895DF93CF9300D00F92F2
:100DB000CDB7DEB7823041F0833041F0813011F49D
:100DC00080E405C080E003C084E101C084E5860FB3
:100DD0008B8385E48A838EEF898388E2BE016F5F0F
:100DE0007F4F41E020E00E94900788E2BE016E5FE5
:100DF0007F4F41E020E00E94900788E2BE016D5FD6
:100E00007F4F41E020E00E9490070F900F900F90DD
:100E1000CF91DF910895DF93CF930F92CDB7DEB7D7
:100E2000898388E2BE016F5F7F4F41E020E00E942E
:100E300090070F90CF91DF910895EF92FF920F935B
:100E40001F93DF93CF930F92CDB7DEB78C017E0156
:100E50000894E11CF11C07C0898388E2B70141E0D6
:100E600020E00E949007F80181918F018823A1F76B
:100E70000F90CF91DF911F910F91FF90EF90089508
:100E800080E090E060E00E9468070895882369F0A0
:100E900084EC8093BC008091BC0087FFFCCF8091E4
:100EA000B900887F803569F410C084E88093BC0065
:100EB0008091BC0087FFFCCF8091B900887F883586
:100EC00021F08091B900887F08958091BB0008953A
:100ED0009C0187B1806387B9662319F088B180636C
:100EE00002C088B18F7C88B987B18F7C87B92130E7
:100EF000310561F02130310538F02230310541F003
:100F00002330310561F408C088E903C088E401C0DA
:100F100088E18093B80008958CE08093B80008952C
:100F2000982F84EA8093BC008091BC0087FFFCCF9F
:100F30008091B900887F883071F08091B900887FF6
:100F4000803149F08091B900E82FF0E0E87FF0703F
:100F5000309709F046C0990F9093BB0084E88093C6
:100F6000BC008091BC0087FFFCCF8091B900887FD6
:100F7000883149F18091B900887F803421F18091D6
:100F8000B900E82FF0E0E87FF070309751F51BC012
:100F9000FB01EA0FFB1F80818093BB009093BC0094
:100FA0008091BC0087FFFCCF8091B900887F883298
:100FB00041F08091B900E82FF0E0E87FF0703097C1
:100FC00081F4119604C0A0E0B0E050E094E8A417CA
:100FD000B507F4F2222319F484E98093BC00E0E021
:100FE000F0E0CF010895CF92DF92EF92FF920F933E
:100FF0001F93CF93DF93982F8B0184EA8093BC00DB
:101000008091BC0087FFFCCF8091B900887F883039
:1010100079F08091B900887F803151F08091B900DA
:10102000282F30E0287F30702115310509F041C0AC
:10103000990F91609093BB0084E88093BC008091ED
:10104000BC0087FFFCCF8091B900887F8831C1F058
:101050008091B900887F803499F08091B900282F61
:1010600030E0287F30702115310519F509C081E085
:101070000E944607F801EC0FFD1F8083219608C0EF
:10108000C0E0D0E0E42EFF2467010894C108D10835
:10109000CC15DD0564F380E00E9446070E0D1F1D90
:1010A00001501040F801808384E98093BC0020E067
:1010B00030E0C901DF91CF911F910F91FF90EF9028
:1010C000DF90CF9008951F93DF93CF93CDB7DEB716
:1010D0002F970FB6F894DEBF0FBECDBF80E090E033
:1010E00060E00E946807198288E6BE016F5F7F4F4B
:1010F00041E020E00E94900788E6BE016E5F7F4FCE
:1011000047E00E94F30718854F815E816C817B81E7
:101110008A81282F30E020773070E4E035952795DC
:10112000EA95E1F7D90193E0AA0FBB1F9A95E1F781
:10113000220F331FA20FB31F8F70272F22952F70FE
:101140009AE0299F900111247F70720F262F30E0C2
:1011500020733070E4E035952795EA95E1F7F901C1
:10116000B3E0EE0FFF1FBA95E1F7220F331FE20F36
:10117000F31F6F706E0F252F22952F70299F9001FE
:1011800011245F70520F242F22952F70299F9001F8
:1011900011244F70420F212F22952F70299F90010B
:1011A00011241F70210F311D2053384F3A87298792
:1011B0009A85392F8A0F90E02F960FB6F894DEBFEC
:1011C0000FBECDBFCF91DF911F91089551985998CF
:1011D00081E008958CE08A95F1F74999FECF8CE083
:1011E0008A95F1F7499BFECF82E68A95F1F789B19E
:1011F00090E09695879581700895FF920F931F93C5
:10120000FF2401E018E00E94EA088111F02A115041
:1012100011F0000FF8CF8F2D1F910F91FF900895BF
:10122000CF92DF92EF92FF920F931F93DF93CF93B2
:10123000CDB7DEB7C456D0400FB6F894DEBF0FBEB0
:10124000CDBF6C01519A80E094E20197F1F751987B
:101250008CE08A95F1F74999FECF8CE08A95F1F7F9
:10126000499BFECF8E01035C1F4F58E2E52EF12C07
:10127000E00EF11E0E94EA08D8018D938D01AE1593
:10128000BF05C1F7F60140E050E08E01035C1F4F3F
:1012900017C08D91992787FD9095022E02C0880F67
:1012A000991F0A94E2F7682B215030408FEF2F3FAF
:1012B000380779F76193485F5F4F4832510539F03D
:1012C0006081D801A40FB51F27E030E0E2CFD6013E
:1012D00011962C91119730E09C9180E0282B392BAE
:1012E00012969C91129780E013960C9110E0082BB7
:1012F000192BEDB7FEB73E970FB6F894FEBF0FBEA1
:10130000EDBF3196CE010196ADB7BEB712969C9354
:101310008E93119744E1E42EF12CF382E2828EE069
:1013200092E095838483C9016AE070E00E94520ACA
:1013300077836683C9016AE070E00E94520A918750
:101340008087C8016AE070E00E94520A7387628752
:10135000C8016AE070E00E94520A958784870E9463
:10136000650A0F900F900F900F90EDB7FEB7319672
:10137000CE014596ADB7BEB712969C938E9311974A
:10138000F382E28280E292E095838483D6018C919D
:101390008683178211968C91808711860E94650A38
:1013A00000D0EDB7FEB73196CE018996ADB7BEB786
:1013B00012969C938E931197F382E2828CE292E0D4
:1013C00095838483D60112968C9112978683178217
:1013D00013968C9113978087118614968C9182872F
:1013E00013860E94650A20E137E2EDB7FEB73C960E
:1013F0000FB6F894FEBF0FBEEDBF48EB50E0CA0138
:101400000197F1F721503040D1F7CC59DF4F0FB69B
:10141000F894DEBF0FBECDBFCF91DF911F910F912A
:10142000FF90EF90DF90CF900895ECE7F0E080819F
:1014300080648083808180628083EAE7F0E080813D
:1014400087608083808180688083089580917C009C
:10145000807F80937C001092790080917C00836073
:1014600080937C0080917A00806480937A008091E0
:101470007A0086FDFCCF809179000895AA1BBB1BE2
:1014800051E107C0AA1FBB1FA617B70710F0A61B84
:10149000B70B881F991F5A95A9F780959095BC01A5
:1014A000CD01089597FB092E07260AD077FD04D0B9
:1014B000E5DF06D000201AF4709561957F4F0895FE
:1014C000F6F7909581959F4F0895AEE0B0E0EBE67A
:1014D000FAE00C94690D0D891E898F89988D97FF0C
:1014E00002C080E090E801979E838D831A83098370
:1014F00086E08C839E01255E3F4FCE010196698D6B
:101500007A8DA9010E94960A4D815E8157FD0AC01D
:101510002F813885421753070CF49A01020F131FCD
:10152000F80110822E96E4E00C94850DABE0B0E05B
:10153000ECE9FAE00C945B0D3C012B015A01FC0133
:1015400017821682838181FD03C06FEF7FEFC6C1D2
:101550009AE0892E1E010894211C311CF30123817D
:10156000F20123FD859123FF81912F01882309F446
:10157000B2C1853239F423FD859123FF81912F017A
:10158000853229F490E0B3010E94C10CE7CF982F77
:10159000FF24EE249924FFE1FF15D0F09B3269F07F
:1015A0009C3228F4903259F0933291F40EC09D325F
:1015B00049F0903369F441E024C052E0F52A84E018
:1015C000F82A28C098E0F92A25C0E0E1FE2A22C0C6
:1015D000F7FC29C0892F80538A3070F4F6FE05C0CD
:1015E000989C902C1124980E15C0E89CE02C112496
:1015F000E80EF0E2FF2A0EC09E3229F4F6FC6BC121
:1016000040E4F42A07C09C3619F450E8F52A02C0D9
:10161000983649F4F20123FD959123FF91912F0112
:10162000992309F0B8CF892F8554833018F0805260
:10163000833038F444E050E0A40EB51E5FE35983D4
:101640000FC0933631F0933779F0933509F056C0D7
:1016500020C0F5018081898342E050E0A40EB51ED0
:10166000610101E010E012C0F501C080D180F6FCFC
:1016700003C06FEF7FEF02C0692D70E042E050E0E1
:10168000A40EB51EC6010E94B60C8C015FE7F522C0
:1016900014C0F501C080D180F6FC03C06FEF7FEF6E
:1016A00002C0692D70E042E050E0A40EB51EC601F4
:1016B0000E94AB0C8C0150E8F52AF3FE07C01AC05B
:1016C00080E290E0B3010E94C10CEA948E2D90E07C
:1016D00008171907A8F30EC0F601F7FC8591F7FE6D
:1016E00081916F0190E0B3010E94C10CE110EA9476
:1016F000015010400115110579F7EAC0943611F038
:10170000993669F5F7FE08C0F501208131814281E3
:10171000538184E090E00AC0F501808191819C01B1
:10172000442737FD4095542F82E090E0A80EB91E63
:101730009FE6F92257FF09C05095409530952195B5
:101740003F4F4F4F5F4FE0E8FE2ACA01B901A101A8
:101750002AE030E00E94ED0CD82ED21840C0953718
:1017600029F41F2D1F7E2AE030E01DC01F2D197F98
:101770009F3661F0903720F4983509F0ACC00FC067
:10178000903739F0983709F0A6C004C028E030E05F
:101790000AC0106114FD146020E130E004C014FDA3
:1017A000166020E132E017FF08C0F5016081718109
:1017B0008281938144E050E008C0F50180819181ED
:1017C000BC0180E090E042E050E0A40EB51EA10113
:1017D0000E94ED0CD82ED2188FE7F82EF122F6FEDB
:1017E0000BC05EEFF522D91438F4F4FE07C0F2FC0A
:1017F00005C08FEEF82202C01D2D01C0192DF4FE88
:101800000DC0FE01ED0DF11D8081803319F499EEBC
:10181000F92208C01F5FF2FE05C003C08F2D867835
:1018200009F01F5F0F2DF3FC14C0F0FE0FC01E1552
:1018300010F09D2C0BC09D2C9E0C911A1E2D06C0E5
:1018400080E290E0B3010E94C10C1F5F1E15C0F33F
:1018500004C01E1510F4E11A01C0EE2404FF0FC0ED
:1018600080E390E0B3010E94C10C02FF1DC001FDA6
:1018700003C088E790E00EC088E590E00BC0802FA1
:10188000867891F001FF02C08BE201C080E2F7FC94
:101890008DE290E0B3010E94C10C06C080E390E0AD
:1018A000B3010E94C10C9A94D914C0F3DA94F101E7
:1018B000ED0DF11D808190E0B3010E94C10CDD208F
:1018C000A9F706C080E290E0B3010E94C10CEA943F
:1018D000EE20C1F743CEF30166817781CB012B96D1
:1018E000E2E10C94770DF999FECF92BD81BDF89A93
:1018F000992780B50895A6E1B0E044E050E00C944B
:101900004D0DA8E1B0E042E050E00C944D0D262FC3
:10191000F999FECF92BD81BDF89A019700B40216E5
:1019200039F01FBA20BD0FB6F894FA9AF99A0FBE93
:1019300008950396272F0E94880C0E94870C252F5C
:101940000E94880C242F0C94880C0196272F0E944B
:10195000880C0C94870CFC010590615070400110BC
:10196000D8F7809590958E0F9F1F0895FC016150C8
:10197000704001900110D8F7809590958E0F9F1FB1
:1019800008950F931F93CF93DF938C01EB018B810D
:1019900081FF1BC082FF0DC02E813F818C819D8104
:1019A0002817390764F4E881F9810193F983E88302
:1019B00006C0E885F985802F0995892B31F48E8141
:1019C0009F8101969F838E8302C00FEF1FEFC80196
:1019D000DF91CF911F910F910895FA01AA27283026
:1019E00051F1203181F1E8946F936E7F6E5F7F4FEC
:1019F0008F4F9F4FAF4FB1E03ED0B4E03CD0670F68
:101A0000781F891F9A1FA11D680F791F8A1F911DBA
:101A1000A11D6A0F711D811D911DA11D20D009F40A
:101A200068943F912AE0269F11243019305D31934C
:101A3000DEF6CF010895462F4770405D4193B3E035
:101A40000FD0C9F7F6CF462F4F70405D4A3318F0DC
:101A5000495D31FD4052419302D0A9F7EACFB4E08D
:101A6000A6959795879577956795BA95C9F7009745
:101A70006105710508959B01AC010A2E06945795E6
:101A8000479537952795BA95C9F7620F731F841F3D
:101A9000951FA01D0895DC01CB01FC01F999FECF33
:101AA00006C0F2BDE1BDF89A319600B40D924150E6
:101AB0005040B8F708952F923F924F925F926F92E5
:101AC0007F928F929F92AF92BF92CF92DF92EF92CE
:101AD000FF920F931F93CF93DF93CDB7DEB7CA1B4F
:101AE000DB0B0FB6F894DEBF0FBECDBF09942A887A
:101AF000398848885F846E847D848C849B84AA8422
:101B0000B984C884DF80EE80FD800C811B81AA81AE
:101B1000B981CE0FD11D0FB6F894DEBF0FBECDBF79
:081B2000ED010895F894FFCFD8
:101B2800437572723A204025326464253264682015
:101B38002020696E633A200025346420202534640F
:101B4800202020202020253264002054454D50209C
:101B58002054494D45203E425542424C455300537E
:101B68007461727465643A202020456C61707365F5
:101B7800643A202000253032642F253032642F2526
:101B880030326420202532646420253264682020A5
:101B980020002054454D50203E54494D45202042B8
:101BA8005542424C45530041637475616C3A20209C
:101BB8005468726573683A20202066002532642EC6
:101BC80025316420202020202532642E25316420F0
:101BD800202020202063003E54454D5020205449A9
:101BE8004D452020425542424C4553003E00576522
:101BF8006C636F6D6500536D617274204D6561642F
:101C0800657279005374617274696E67206E6577C6
:101C1800206272657700536176696E67206272652B
:101C280077000100013C00E6005001001000483A2E
:101C38002025642E256420543A2025642E2564002E
:101C4800303A20256420313A20256400323A202594
:0E1C58006420333A20256420343A20256400AD
:00000001FF
