:100000000C9434000C9449000C9449000C94490061
:100010000C9449000C9449000C9449000C9449003C
:100020000C9449000C9449000C9449000C9449002C
:100030000C9449000C9449000C9449000C9449001C
:100040000C9449000C9449000C9449000C9449000C
:100050000C9449000C9449000C9449000C944900FC
:100060000C9449000C94490011241FBECFEFD8E036
:10007000DEBFCDBF11E0A0E0B1E0ECE6FCE002C0E5
:1000800005900D92A234B107D9F70E94A8020C94F2
:1000900034060C9400005198599881E008958CE042
:1000A0008A95F1F700004999FECF8CE08A95F1F727
:1000B0000000499BFECF82E68A95F1F7000089B1E6
:1000C0008695817008959F92AF92BF92CF92DF92F2
:1000D000EF92FF920F931F93CF93DF93CDB7DEB7CD
:1000E000C456D1090FB6F894DEBF0FBECDBF8C0148
:1000F000519A8FEF93E20197F1F700C000005198F9
:100100009CE09A95F1F700004999FECFECE0EA9562
:10011000F1F70000499BFECFCE0101966C017E01F4
:1001200099E2E90EF11C56010E944F00F5018193FE
:100130005F01EE16FF06C1F7F801A8014B5F5F4FA4
:100140006191D60127E030E08D91082E000C990BCB
:10015000022E01C0880F0A94EAF7682B215031095A
:1001600098F7DF0111976C9398E0C90ED11C4E17D8
:100170005F0731F7F80120813181322723273227A9
:1001800082819381982789279827EAE0F0E0BF01D0
:100190000E9427039F938F937F936F93C901BF01A1
:1001A0000E9427039F938F937F936F9383E091E047
:1001B0009F938F931F9284E1982E9F925E01F1E5A9
:1001C000AF0EB11CBF92AF920E944F03F801818124
:1001D0001F928F9380811F928F9385E191E09F936F
:1001E0008F931F929F926E01FDE3CF0ED11CDF9281
:1001F000CF920E944F03F80184811F928F938381D5
:100200001F928F9382811F928F9381E291E09F933F
:100210008F931F929F92FF92EF920E944F030FB60F
:10022000F894DEBF0FBECDBF60E080E00E94750194
:10023000C5010E94690160E081E00E947501C6016C
:100240000E94690160E082E00E947501C7010E947E
:1002500069019FEFEFE7F6E19150E040F040E1F7F0
:1002600000C00000CC59DF4F0FB6F894DEBF0FBEC0
:10027000CDBFDF91CF911F910F91FF90EF90DF9055
:10028000CF90BF90AF909F9008951F93CF93DF932F
:10029000D8E011E0C0E00E944F008111C12B110F86
:1002A000D150C9F78C2FDF91CF911F910895CF9333
:1002B000DF931F92CDB7DEB7898320E041E0BE0116
:1002C0006F5F7F4F88E20E941C020F90DF91CF91F9
:1002D0000895CF93DF93EC018991811103C0DF91E1
:1002E000CF9108950E945701F7CFCF93DF9300D0AD
:1002F0001F92CDB7DEB79EEF9B8395E49A83815022
:10030000833028F5E82FF0E0E050FF4F8081860F22
:10031000898320E041E0BE016D5F7F4F88E20E944B
:100320001C0220E041E0BE016E5F7F4F88E20E9428
:100330001C0220E041E0BE016F5F7F4F88E20E9417
:100340001C020F900F900F90DF91CF91089580E0E5
:10035000DECFCF93DF9300D0CDB7DEB78EEF8A83A9
:1003600081E5898320E041E0BE016E5F7F4F88E236
:100370000E941C0220E041E0BE016F5F7F4F88E2D7
:100380000E941C020F900F90DF91CF91089584EA94
:100390008093BC008091BC0087FFFCCF8091B900A6
:1003A000887F883051F08091B900887F803129F0B2
:1003B0008091B900887F90E0089590E080E00895F2
:1003C0008093BB0084E88093BC008091BC0087FFD1
:1003D000FCCF8091B900887F883151F08091B900BD
:1003E000887F803429F08091B900887F90E008955B
:1003F00090E080E0089527B1206327B928B16623F3
:1004000079F0206328B927B12F7C27B98130910575
:1004100069F040F08230910559F0039759F0089542
:100420002F7CF0CF88E98093B800089588E4FBCF53
:1004300088E1F9CF8CE0F7CFFF920F931F93CF9312
:10044000DF93F82EEB01042F122F0E94C7010097B3
:10045000A9F48F2D880F0E94E001009779F4FE0126
:10046000402F50E0A4E89F012C1B3D0B24173507BB
:100470005CF0111103C024E92093BC00DF91CF91FF
:100480001F910F91FF90089521912093BB00A0939D
:10049000BC002091BC0027FFFCCF2091B900287F31
:1004A000283209F32091B900287F622F70E0D9F239
:1004B000CB01E4CF0F931F93CF93DF93082FEB0172
:1004C000142F0E94C701009741F5802F880F81608B
:1004D0000E94E001009709F5FE01212F2150330B06
:1004E000A90164EC9F012C1B3D0B24173507D4F0A8
:1004F000C40FD51F24E82093BC002091BC0027FF27
:10050000FCCF2091B900287F2835F9F02091B9005F
:10051000287F288324E92093BC00DF91CF911F918D
:100520000F9108956093BC002091BC0027FFFCCF81
:100530002091B900287F203529F02091B900287F2B
:100540002193D0CF2091BB00FBCF2091BB00E1CF06
:10055000CF93DF93CDB7DEB728970FB6F894DEBF01
:100560000FBECDBF60E090E080E00E94FB010E94E2
:100570004B0019821A821B821C821D82389A529863
:100580005A9A40988EEF888786E48F8381E58E8320
:1005900020E041E0BE01685F7F4F88E20E941C02BC
:1005A00020E041E0BE01695F7F4F88E20E941C02AB
:1005B00020E041E0BE01685F7F4F88E20E941C029C
:1005C00020E041E0BE016A5F7F4F88E20E941C028A
:1005D00020E041E0BE01685F7F4F88E20E941C027C
:1005E00020E041E0BE01695F7F4F88E20E941C026B
:1005F00062E080E00E94750183E391E00E9469015E
:100600002FEF8FEF9CE2215080409040E1F700C037
:1006100000004A99FECF20E041E0BE01685F7F4FB5
:1006200088E20E941C0220E041E0BE016A5F7F4F29
:1006300088E20E941C02409A26EF2A95F1F74A9B15
:10064000FECFCE0101960E9463004098E2CF97FB57
:10065000072E16F4009407D077FD09D00E943B03C3
:1006600007FC05D03EF4909581959F4F08957095B5
:1006700061957F4F0895AA1BBB1B51E107C0AA1FBC
:10068000BB1FA617B70710F0A61BB70B881F991F33
:100690005A95A9F780959095BC01CD010895AEE0DB
:1006A000B0E0E5E5F3E00C940B060D891E898F8917
:1006B000988D26E02C831A83098397FF02C080E07F
:1006C00090E801979E838D83AE01455E5F4F698DF3
:1006D0007A8DCE0101960E947F034D815E8157FD88
:1006E0000AC02F813885421753070CF49A01020F74
:1006F000131FF80110822E96E4E00C942706ABE05D
:10070000B0E0E5E8F3E00C94FD057C013B018A01D3
:10071000FC0117821682838181FFC8C1CE01019638
:100720005C01F7019381F30193FD859193FF819122
:100730003F01882309F453C1853239F493FD859133
:1007400093FF81913F01853229F4B70190E00E9427
:100750006F05E7CF912C212C312CFFE1F31538F0F8
:100760008B3211F190F4803209F1833229F137FC98
:100770003CC020ED280F2A3050F536FE20C08AE01C
:10078000989E200D1124922E06C08D3291F0803358
:1007900071F7689430F8F30193FD859193FF81918F
:1007A0003F018111DACF21C0689431F8689432F8A2
:1007B000F2CF689433F8EFCF689434F8ECCFEAE0E6
:1007C0002E9E200D1124222E689435F8E4CF8E320F
:1007D00029F436FC04C1689436F8DDCF8C3619F460
:1007E000689437F8D8CF8836B1F2982F9F7D95540A
:1007F0009330E0F08336A1F18337C1F1833509F0FE
:1008000063C02801F2E04F0E511CF801C080D18076
:10081000692D70E036FC02C06FEF7FEFC6010E94C9
:1008200059054C01689437F882010AC00C5F1F4FCC
:10083000FFE3F98388248394912C6501E89437F8C9
:1008400033FE2DC0522C8114910471F5552009F40A
:1008500068CFB70180E290E00E946F055A94F6CF0E
:10086000F801808189830E5F1F4FE4CF2801F2E0F9
:100870004F0E511CF801C080D180692D70E036FC0C
:1008800002C06FEF7FEFC6010E9464054C01820138
:10089000D5CFB70180E290E00E946F052A9428141A
:1008A000190409F0B0F7CECFF60137FC859137FE79
:1008B00081916F01B70190E00E946F0551105A9429
:1008C000F1E08F1A9108BFCF843619F0893609F00C
:1008D00077C0F80137FE6BC060817181828193819E
:1008E0000C5F1F4FF32DFF763F2E97FF09C09095A9
:1008F0008095709561957F4F8F4F9F4F689437F823
:100900002AE030E0A5010E949F05C82ECA188C2C51
:10091000432C36FE0CC0E89440F8C91440F434FE71
:1009200005C032FC03C0F32DFE7E4F2E892C44FE01
:1009300095C0FE01EC0DF11D8081803309F087C068
:10094000242D297E422E842D8870582E43FC95C07C
:1009500040FE8FC09C2C821418F42C0C922C9818FA
:1009600044FE91C0B70180E390E00E946F0542FE13
:1009700009C088E790E041FE02C088E590E0B70139
:100980000E946F05C91408F48AC0CA94D12C9FEF45
:10099000C91AD90ACA0CDB1CF60182916F01B70192
:1009A00090E00E946F05AC14BD04B1F74FCF608199
:1009B0007181072E000C880B990B0E5F1F4F92CF91
:1009C000D32CE894D4F82AE030E0853739F1232D90
:1009D000297FD22E8F3601F148F48835A9F0F7012E
:1009E000868197812B96E2E10C941906803749F0B5
:1009F0008837A9F7D4FE02C06894D2F820E130E02D
:100A00000DC06894D4F8F6CF34FE03C0822F866000
:100A1000D82E20E132E002C028E030E0F801D7FE15
:100A20000FC060817181828193810C5F1F4FA5018E
:100A30000E949F05C82ECA183D2CE89437F867CF4E
:100A40006081718190E080E00E5F1F4FF0CF42FC2B
:100A500002C0839478CF8394839475CF842D867855
:100A600009F471CFF6CFB70180E290E00E946F05E4
:100A700083948214C0F3512C73CF522C58188214D3
:100A800008F46ECFF8CF842D867809F47BCF8BE203
:100A900041FE80E247FC8DE2B70190E071CFB701E3
:100AA00080E390E00E946F059A946CCF8FEF9FEFE8
:100AB00099CFFC010590615070400110D8F78095E6
:100AC00090958E0F9F1F0895FC016150704001901A
:100AD0000110D8F7809590958E0F9F1F08950F9362
:100AE0001F93CF93DF93182F092FEB018B8181FD8B
:100AF00009C01FEF0FEF812F902FDF91CF911F9132
:100B00000F91089582FF14C02E813F818C819D81B9
:100B1000281739073CF4E881F981CF0101969983C0
:100B2000888310838E819F8101969F838E83E3CF7C
:100B3000E885F985812F0995892BA1F3DACFFA0190
:100B4000AA27283051F1203181F1E8946F936E7F0C
:100B50006E5F7F4F8F4F9F4FAF4FB1E03ED0B4E0FD
:100B60003CD0670F781F891F9A1FA11D680F791F3E
:100B70008A1F911DA11D6A0F711D811D911DA11D4F
:100B800020D009F468943F912AE0269F112430195F
:100B9000305D3193DEF6CF010895462F4770405DFA
:100BA0004193B3E00FD0C9F7F6CF462F4F70405DA9
:100BB0004A3318F0495D31FD4052419302D0A9F704
:100BC000EACFB4E0A6959795879577956795BA95FE
:100BD000C9F700976105710508959B01AC010A2EC4
:100BE00006945795479537952795BA95C9F7620F9B
:100BF000731F841F951FA01D08952F923F924F923F
:100C00005F926F927F928F929F92AF92BF92CF929C
:100C1000DF92EF92FF920F931F93CF93DF93CDB7A5
:100C2000DEB7CA1BDB0B0FB6F894DEBF0FBECDBF1D
:100C300009942A88398848885F846E847D848C84EE
:100C40009B84AA84B984C884DF80EE80FD800C81F7
:100C50001B81AA81B981CE0FD11D0FB6F894DEBFDA
:0C0C60000FBECDBFED010895F894FFCF4A
:100C6C0028143C483A2025642E256420543A20252B
:100C7C00642E256400303A20256420313A20256406
:100C8C0000323A20256420333A20256420343A205F
:100C9C0025640054656D70205465737420436F6433
:020CAC006500E1
:00000001FF
