:100000000C9434000C943E000C943E000C943E0082
:100010000C943E000C943E000C943E000C943E0068
:100020000C943E000C943E000C943E000C943E0058
:100030000C943E000C943E000C943E000C943E0048
:100040000C943E000C943E000C943E000C943E0038
:100050000C943E000C943E000C943E000C943E0028
:100060000C943E000C943E0011241FBECFEFD8E04C
:10007000DEBFCDBF0E9440000C94FA010C9400003A
:100080002F923F924F925F926F927F928F929F92A8
:10009000AF92BF92CF92DF92EF92FF920F931F9396
:1000A000DF93CF93CDB7DEB727970FB6F894DEBFB7
:1000B0000FBECDBF80E090E060E00E94FF00389A64
:1000C00040988EEF898386E48A8381E58B8388E478
:1000D0008C8385E68D838CE68E838FE68F838E01FD
:1000E0000F5F1F4F62E0C62ED12CCC0EDD1E53E0F9
:1000F000252E312C2C0E3D1E44E0442E512C4C0E4E
:100100005D1E35E0632E712C6C0E7D1E26E0E22E06
:10011000F12CEC0EFD1E97E0892E912C8C0E9D1E6D
:1001200088EBA82EB12C88E2B80141E020E00E94C3
:10013000270188E2B60141E020E00E94270188E221
:10014000B80141E020E00E94270188E2B10141E0CE
:1001500020E00E94270188E2B80141E020E00E94EF
:10016000270188E2B60141E020E00E94270188E2F1
:10017000B20141E020E00E94270188E2B30141E0A2
:1001800020E00E94270188E2B70141E020E00E94C0
:10019000270188E2B70141E020E00E94270188E2C0
:1001A000B40141E020E00E94270180E197E2F501DF
:1001B0003197F1F70197D9F7B6CF882369F084EC2E
:1001C0008093BC008091BC0087FFFCCF8091B90078
:1001D000887F803569F410C084E88093BC008091EA
:1001E000BC0087FFFCCF8091B900887F883521F063
:1001F0008091B900887F08958091BB0008959C018B
:1002000087B1806387B9662319F088B1806302C023
:1002100088B18F7C88B987B18F7C87B9213031054F
:1002200061F02130310538F02230310541F02330C2
:10023000310561F408C088E903C088E401C088E1A1
:100240008093B80008958CE08093B8000895982FAB
:1002500084EA8093BC008091BC0087FFFCCF809132
:10026000B900887F883071F08091B900887F803133
:1002700049F08091B900E82FF0E0E87FF070309706
:1002800009F046C0990F9093BB0084E88093BC00AE
:100290008091BC0087FFFCCF8091B900887F8831B6
:1002A00049F18091B900887F803421F18091B900B3
:1002B000E82FF0E0E87FF070309751F51BC0FB01AC
:1002C000EA0FFB1F80818093BB009093BC0080915C
:1002D000BC0087FFFCCF8091B900887F883241F055
:1002E0008091B900E82FF0E0E87FF070309781F45A
:1002F000119604C0A0E0B0E050E094E8A417B50760
:10030000F4F2222319F484E98093BC00E0E0F0E0E9
:10031000CF010895CF92DF92EF92FF920F931F9338
:10032000CF93DF93982F8B0184EA8093BC00809158
:10033000BC0087FFFCCF8091B900887F883079F0BE
:100340008091B900887F803151F08091B900282FC9
:1003500030E0287F30702115310509F041C0990F38
:1003600091609093BB0084E88093BC008091BC00B6
:1003700087FFFCCF8091B900887F8831C1F08091E0
:10038000B900887F803499F08091B900282F30E03F
:10039000287F30702115310519F509C081E00E94D0
:1003A000DD00F801EC0FFD1F8083219608C0C0E03E
:1003B000D0E0E42EFF2467010894C108D108CC15D1
:1003C000DD0564F380E00E94DD000E0D1F1D01506D
:1003D0001040F801808384E98093BC0020E030E085
:1003E000C901DF91CF911F910F91FF90EF90DF90A6
:0803F000CF900895F894FFCFAF
:00000001FF
