:100000000C9434000C9449000C9449000C94490061
:100010000C9449000C9449000C9449000C9449003C
:100020000C9449000C9449000C9449000C9449002C
:100030000C9449000C9449000C9449000C9449001C
:100040000C9449000C9449000C9449000C9449000C
:100050000C9449000C9449000C9449000C944900FC
:100060000C9449000C94490011241FBECFEFD8E036
:10007000DEBFCDBF11E0A0E0B1E0EEE2FBE002C0E8
:1000800005900D92A431B107D9F70E940E020C948D
:1000900095050C94000084EA8093BC008091BC001C
:1000A00087FFFCCF8091B900887F883051F0809124
:1000B000B900887F803129F08091B900887F90E075
:1000C000089590E080E008958093BB0084E88093D9
:1000D000BC008091BC0087FFFCCF8091B900887F75
:1000E000883151F08091B900887F803429F0809167
:1000F000B900887F90E0089590E080E0089527B1EE
:10010000206327B928B1662379F0206328B927B185
:100110002F7C27B98130910569F040F0823091053C
:1001200059F0039759F008952F7CF0CF88E9809318
:10013000B800089588E4FBCF88E1F9CF8CE0F7CFD1
:10014000FF920F931F93CF93DF93F82EEB01042FB1
:10015000122F0E944B000097A9F48F2D880F0E9448
:100160006400009779F4FE01402F50E0A4E89F015D
:100170002C1B3D0B241735075CF0111103C024E93B
:100180002093BC00DF91CF911F910F91FF900895B4
:1001900021912093BB00A093BC002091BC0027FFBD
:1001A000FCCF2091B900287F283209F32091B900B3
:1001B000287F622F70E0D9F2CB01E4CF0F931F9319
:1001C000CF93DF93082FEB01142F0E944B00009771
:1001D00041F5802F880F81600E946400009709F527
:1001E000FE01212F2150330BA90164EC9F012C1B30
:1001F0003D0B24173507D4F0C40FD51F24E82093F6
:10020000BC002091BC0027FFFCCF2091B900287FC3
:100210002835F9F02091B900287F288324E920931C
:10022000BC00DF91CF911F910F9108956093BC00A6
:100230002091BC0027FFFCCF2091B900287F2035FA
:1002400029F02091B900287F2193D0CF2091BB00C5
:10025000FBCF2091BB00E1CFCF93DF931F92CDB7AF
:10026000DEB7898320E041E0BE016F5F7F4F88E207
:100270000E94A0000F90DF91CF910895CF93DF935C
:10028000EC018991811103C0DF91CF9108950E9403
:100290002C01F7CFCF93DF9300D01F92CDB7DEB7FD
:1002A0002EEF2B8325E42A83813039F120F182302F
:1002B00031F1833031F1960F998320E041E0BE01A6
:1002C0006D5F7F4F88E20E94A00020E041E0BE0108
:1002D0006E5F7F4F88E20E94A00020E041E0BE01F7
:1002E0006F5F7F4F88E20E94A0000F900F900F90E9
:1002F000DF91CF91089590E0DECF98E2DCCF94E1DA
:10030000DACF9CE3D8CF5198599881E008958CE0DA
:100310008A95F1F700004999FECF8CE08A95F1F7B4
:100320000000499BFECF82E68A95F1F7000089B173
:10033000869581700895CF93DF93CDB7DEB7AA97E6
:100340000FB6F894DEBF0FBECDBF519A8FEF93E288
:100350000197F1F700C0000051989CE09A95F1F7E1
:1003600000004999FECFECE0EA95F1F70000499BC7
:10037000FECFCE0101966C017E0199E2E90EF11CDF
:1003800086010E948701F80181938F01EE15FF0518
:10039000C1F710E000E08FE0A82E81E0B82E92E0D7
:1003A000792E24E1822E912CF60181916F01282F64
:1003B000082E000C330B3F938F93BF92AF921F9286
:1003C0007F92FF92EF920E94B002C801B4010E9496
:1003D0008802962F682F892F0E944A01C7010E9428
:1003E0003E010F5F1F4F0FB6F894DEBF0FBECDBFAB
:1003F00008321105C9F6FFCF1F93CF93DF93D8E0E2
:1004000011E0C0E00E9487018111C12B110FD15072
:10041000C9F78C2FDF91CF911F910895CF93DF9370
:10042000CDB7DEB728970FB6F894DEBF0FBECDBFAD
:1004300060E090E080E00E947F000E948301389A93
:1004400052985A9A40988EEF888786E48F8381E588
:100450008E8320E041E0BE01685F7F4F88E20E940A
:10046000A00020E041E0BE01695F7F4F88E20E946A
:10047000A00020E041E0BE01685F7F4F88E20E945B
:10048000A00020E041E0BE016A5F7F4F88E20E9449
:10049000A00020E041E0BE01685F7F4F88E20E943B
:1004A000A00020E041E0BE01695F7F4F88E20E942A
:1004B000A00062E080E00E944A0180E091E00E949A
:1004C0003E012FEF8FEF9CE2215080409040E1F7FA
:1004D00000C000004A99FECF20E041E0BE01685F05
:1004E0007F4F88E20E94A00020E041E0BE016A5FE9
:1004F0007F4F88E20E94A000409A26EF2A95F1F7EC
:100500004A9BFECFCE0101960E949B014098E2CF0C
:1005100097FB072E16F4009407D077FD09D00E94B0
:100520009C0207FC05D03EF4909581959F4F08955D
:10053000709561957F4F0895AA1BBB1B51E107C0C1
:10054000AA1FBB1FA617B70710F0A61BB70B881F63
:10055000991F5A95A9F780959095BC01CD010895F2
:10056000AEE0B0E0E6EBF2E00C946C050D891E897C
:100570008F89988D26E02C831A83098397FF02C008
:1005800080E090E801979E838D83AE01455E5F4FCA
:10059000698D7A8DCE0101960E94E0024D815E81C7
:1005A00057FD0AC02F813885421753070CF49A0172
:1005B000020F131FF80110822E96E4E00C948805B8
:1005C000ABE0B0E0E6EEF2E00C945E057C013B01AE
:1005D0008A01FC0117821682838181FFC8C1CE0186
:1005E00001965C01F7019381F30193FD859193FFDF
:1005F00081913F01882309F453C1853239F493FD79
:10060000859193FF81913F01853229F4B70190E0F4
:100610000E94D004E7CF912C212C312CFFE1F3155F
:1006200038F08B3211F190F4803209F1833229F1E4
:1006300037FC3CC020ED280F2A3050F536FE20C094
:100640008AE0989E200D1124922E06C08D3291F0E2
:10065000803371F7689430F8F30193FD859193FF2F
:1006600081913F018111DACF21C0689431F86894FB
:1006700032F8F2CF689433F8EFCF689434F8ECCFC7
:10068000EAE02E9E200D1124222E689435F8E4CF46
:100690008E3229F436FC04C1689436F8DDCF8C36EE
:1006A00019F4689437F8D8CF8836B1F2982F9F7D27
:1006B00095549330E0F08336A1F18337C1F183354F
:1006C00009F063C02801F2E04F0E511CF801C08010
:1006D000D180692D70E036FC02C06FEF7FEFC6015C
:1006E0000E94BA044C01689437F882010AC00C5F7A
:1006F0001F4FFFE3F98388248394912C6501E894CC
:1007000037F833FE2DC0522C8114910471F5552019
:1007100009F468CFB70180E290E00E94D0045A94B7
:10072000F6CFF801808189830E5F1F4FE4CF280147
:10073000F2E04F0E511CF801C080D180692D70E0AD
:1007400036FC02C06FEF7FEFC6010E94C5044C016A
:100750008201D5CFB70180E290E00E94D0042A94B4
:100760002814190409F0B0F7CECFF60137FC8591B3
:1007700037FE81916F01B70190E00E94D0045110C3
:100780005A94F1E08F1A9108BFCF843619F0893658
:1007900009F077C0F80137FE6BC0608171818281FA
:1007A00093810C5F1F4FF32DFF763F2E97FF09C0FB
:1007B00090958095709561957F4F8F4F9F4F68946E
:1007C00037F82AE030E0A5010E940005C82ECA18BB
:1007D0008C2C432C36FE0CC0E89440F8C91440F42D
:1007E00034FE05C032FC03C0F32DFE7E4F2E892C53
:1007F00044FE95C0FE01EC0DF11D8081803309F0AF
:1008000087C0242D297E422E842D8870582E43FCCB
:1008100095C040FE8FC09C2C821418F42C0C922C96
:10082000981844FE91C0B70180E390E00E94D00484
:1008300042FE09C088E790E041FE02C088E590E0F2
:10084000B7010E94D004C91408F48AC0CA94D12CFC
:100850009FEFC91AD90ACA0CDB1CF60182916F01FD
:10086000B70190E00E94D004AC14BD04B1F74FCFA3
:1008700060817181072E000C880B990B0E5F1F4F52
:1008800092CFD32CE894D4F82AE030E0853739F1C0
:10089000232D297FD22E8F3601F148F48835A9F017
:1008A000F701868197812B96E2E10C947A058037D7
:1008B00049F08837A9F7D4FE02C06894D2F820E145
:1008C00030E00DC06894D4F8F6CF34FE03C0822F18
:1008D0008660D82E20E132E002C028E030E0F80146
:1008E000D7FE0FC060817181828193810C5F1F4FA1
:1008F000A5010E940005C82ECA183D2CE89437F8BF
:1009000067CF6081718190E080E00E5F1F4FF0CF74
:1009100042FC02C0839478CF8394839475CF842D56
:10092000867809F471CFF6CFB70180E290E00E949B
:10093000D00483948214C0F3512C73CF522C5818D6
:10094000821408F46ECFF8CF842D867809F47BCF1B
:100950008BE241FE80E247FC8DE2B70190E071CF6F
:10096000B70180E390E00E94D0049A946CCF8FEF9F
:100970009FEF99CFFC010590615070400110D8F7AE
:10098000809590958E0F9F1F0895FC0161507040D7
:1009900001900110D8F7809590958E0F9F1F0895B4
:1009A0000F931F93CF93DF93182F092FEB018B81A8
:1009B00081FD09C01FEF0FEF812F902FDF91CF91A5
:1009C0001F910F91089582FF14C02E813F818C8169
:1009D0009D81281739073CF4E881F981CF01019600
:1009E0009983888310838E819F8101969F838E8354
:1009F000E3CFE885F985812F0995892BA1F3DACF1B
:100A0000FA01AA27283051F1203181F1E8946F933F
:100A10006E7F6E5F7F4F8F4F9F4FAF4FB1E03ED0E5
:100A2000B4E03CD0670F781F891F9A1FA11D680F83
:100A3000791F8A1F911DA11D6A0F711D811D911DB6
:100A4000A11D20D009F468943F912AE0269F11242B
:100A50003019305D3193DEF6CF010895462F47708F
:100A6000405D4193B3E00FD0C9F7F6CF462F4F70EA
:100A7000405D4A3318F0495D31FD4052419302D048
:100A8000A9F7EACFB4E0A6959795879577956795EE
:100A9000BA95C9F700976105710508959B01AC01EE
:100AA0000A2E06945795479537952795BA95C9F715
:100AB000620F731F841F951FA01D08952F923F92F0
:100AC0004F925F926F927F928F929F92AF92BF925E
:100AD000CF92DF92EF92FF920F931F93CF93DF930A
:100AE000CDB7DEB7CA1BDB0B0FB6F894DEBF0FBE67
:100AF000CDBF09942A88398848885F846E847D84B4
:100B00008C849B84AA84B984C884DF80EE80FD80B5
:100B10000C811B81AA81B981CE0FD11D0FB6F8942B
:0E0B2000DEBF0FBECDBFED010895F894FFCFEC
:100B2E0054656D70205465737420436F64650025A1
:040B3E0030316400EE
:00000001FF
